:020000040800F2
:10000000A8070020D502000835260008A72100080F
:10001000E5220008751F00087B360008000000007C
:10002000000000000000000000000000ED2A0008B1
:10003000791F00080000000041280008592E000820
:10004000EF020008EF020008EF020008EF020008CC
:10005000EF020008EF020008EF020008EF020008BC
:10006000EF020008EF020008EF020008EF020008AC
:10007000EF020008EF020008EF020008EF0200089C
:10008000EF020008EF020008EF020008EF0200088C
:10009000EF020008EF020008EF020008EF0200087C
:1000A000EF020008EF020008EF020008C52E00086A
:1000B000EF020008AD2F0008EF020008EF02000871
:1000C000EF020008EF020008EF020008EF0200084C
:1000D000EF020008F1330008EF020008EF02000809
:1000E000EF020008EF020008EF020008EF0200082C
:1000F000EF020008EF020008EF020008EF0200081C
:10010000EF020008EF020008EF020008EF0200080B
:10011000EF020008EF020008EF020008EF020008FB
:10012000EF020008EF020008EF020008EF020008EB
:10013000EF020008EF020008EF020008EF020008DB
:10014000EF020008EF020008EF020008EF020008CB
:10015000EF020008EF020008EF020008EF020008BB
:10016000EF020008EF020008EF020008EF020008AB
:10017000EF020008EF020008EF020008EF0200089B
:10018000EF020008EF02000800F002F800F092F819
:100190000AA090E8000C82448344AAF10107DA45E2
:1001A00001D100F087F8AFF2090EBAE80F0013F0A2
:1001B000010F18BFFB1A43F001031847BC370000BA
:1001C000DC370000103A24BF78C878C1FAD852074B
:1001D00024BF30C830C144BF04680C6070470000C1
:1001E0000023002400250026103A28BF78C1FBD840
:1001F000520728BF30C148BF0B6070476E2900F01E
:100200003D81702900F07F82662903F032836529E1
:1002100003F02F83672903F02C83612903F02B83DC
:1002200003681B0A28BF41F08001692900F0EA80B9
:10023000642900F0E780752900F0E4806F2900F060
:100240000C82782900F04B82E92900F0A781E4298B
:1002500000F0A481F52900F0A181EF2900F00982C6
:10026000F82900F04A820368DB0928BF41F08001C9
:10027000632900F04D87732900F05287E32900F0CD
:100280005D87F32900F06287002070471FB503F0F7
:10029000EBFA00F0ADFF04000020002103F0CEFADD
:1002A000401C60600020002103F0B2FAE0601FBD36
:1002B00010B510BD00F06EFF1146FFF7E7FF03F029
:1002C00059FA01F04BF803B4FFF7F2FF03BC01F059
:1002D00093F800000948804709480047FEE7FEE719
:1002E000FEE7FEE7FEE7FEE7FEE7FEE7FEE7FEE7E6
:1002F00004480549054A064B704700005D2E00087A
:1003000089010008A8010020A8070020A8030020F8
:10031000A80300201CB50C46064B7B4469460090A0
:10032000204600F0C4F804460020694600F0D2F8E8
:1003300020461CBDB701000070477047704770B57C
:10034000044685690068C10601D5302600E02026F4
:10035000C00707D070BDD4E9012130469047206A1C
:10036000401C20626D1EF6D570BD70B504468569CF
:100370000078C00707D170BDD4E901212020904743
:10038000206A401C20626D1EF6D570BD09684A05C2
:1003900001D540B27047C905FCD500B27047096865
:1003A0004A0501D5C0B27047C905FCD580B2704777
:1003B00070B50C460546012A05D02878800600D580
:1003C000EA69002302E0012305E05B1C934202D2AC
:1003D000E05C0028F9D1A869E618C01AA861286A6B
:1003E000184428622846FFF7AAFF04E0D5E9012156
:1003F00014F8010B9047B442F8D32846FFF7B5FF35
:1004000070BD00002DE9F0410646002410687529F2
:10041000314616A510D0FFF7B9FF002802DA404296
:1004200013A507E031688A0701D512A502E0490744
:1004300004D511A5012401E0FFF7B1FF00210A2234
:1004400006F1240709E0B0FBF2FCB0FBF2F302FB7B
:100450001C00303078541846491C0028F3D123463C
:100460002A463046BDE8F04100F061BA00000000C5
:100470002D0000002B000000200000001168026821
:10048000006A530501D508700AE0D30501D508803C
:1004900006E0130603D5C217C1E9000200E00860B8
:1004A0000120704701694A1C02610878704700B555
:1004B0008FB0CDE901310021059105497944CDE99D
:1004C00003101146684600F029F90FB000BD000086
:1004D000E5FFFFFF0A6802F8010B0A6070470000A1
:1004E0002DE9FF5F15468A460446DFF8AC80F844E4
:1004F0000027D8E900103E46CDE9001010E03AF898
:1005000016106A4602A800F025FE411C07D021788B
:10051000890603D5E269391891420DD80744761C43
:100520002078800602D5E069B84205DDAE42E6DB00
:100530003AF816000028E2D1A069C01BA06120464D
:10054000FFF7FDFED8E90010CDE90010002017E00C
:100550003AF818106A4602A800F0FCFDB0F1FF3F1F
:1005600081460BD000250DF1080B05E0D4E90121EF
:100570001BF8050090476D1C4D45F7D308F10100AD
:10058000B0428046E4DB206A384420622046FFF710
:10059000ECFEBDE8FF9F00008A3300002DE9F0412A
:1005A0008046D21D22F007020025D2E90002F5297B
:1005B00015A614D0011E72F1000106DA0023D0EB5B
:1005C000030063EB020211A608E0D8F800108B07C5
:1005D00001D50FA602E0490701D50EA60125114657
:1005E000002408F1240704E000F05CF930323A55A9
:1005F000641C50EA0102F7D12B46324621464046A0
:10060000BDE8F04100F093B9000000002D000000AB
:100610002B0000002000000030B4002100F1240471
:1006200008E002F00705D208303542EA4372DB08E1
:100630006554491C52EA0305F3D10468002310A253
:10064000250707D5A40600D421B1C46901230DA252
:10065000641EC46130BC00F06AB910B5044621467E
:100660001068FFF79CFE02462046BDE810400023BC
:10067000D2E7D21D22F00701D1E90023CCE7000028
:100680000000000030000000F0B40D4601880905AC
:1006900002D5214C7C4402E01F4C7C440E340021E6
:1006A00000F1240608E002F00F071209E75D42EAB4
:1006B00003721B097754491C52EA0307F3D10278ED
:1006C0000023120704D5702D06D009B1022311347E
:1006D0002246F0BC00F02BB901231034F8E770B5C6
:1006E00004460D4621461068FFF759FE024629468A
:1006F0002046BDE870400023C6E7D21D22F0070364
:10070000D3E90023C0E70368126843F020030360C5
:100710000823C3610023B7E7EC3100002DE9F05F47
:10072000894604464FF0000ADFF874B1FB44C0F874
:1007300020A02046E1688847002874D0252806D0EC
:10074000D4E901219047206A401C2062F1E700268D
:100750005F462046E16888472028054607DB312DA3
:1007600005D2781910F8200C08B10643F1E7B0075C
:1007700001D526F00406C4F81CA00027C4F818A070
:100780002A2D09D0284602F0EDFF38B304EB870884
:10079000303DC8F8185019E059F8041B204604EB06
:1007A00087029161E1688847012F054618D1E06909
:1007B000002820DA26F020061DE0D8F8180000EB0B
:1007C000800005EB40003038C8F818002046E1688A
:1007D0008847054602F0C6FF0028EED1012F0AD057
:1007E0002E2D08D12046E16888477F1C0546022F40
:1007F00046F02006C4DBA069002803DA404246F038
:100800000106A061F00701D026F010066C2D0BD078
:10081000682D09D04C2D39D06A2D35D0742D35D0A6
:100820007A2D33D016E038E0E1682F46204688471D
:10083000B842054609D16C2F26D04FF48060E1689C
:10084000064320468847054604E06C2F1AD04FF433
:10085000807006430DB3A5F14100192802D8203558
:1008600046F400664A462946204626604E46FFF773
:10087000C5FC80B101280BD0F61D26F0070000F161
:10088000080956E74020E4E78020D8E70020D6E7B3
:1008900006F104094DE7284652E7206ABDE8F09FBB
:1008A0007C31000030B5B0F10A024FEA900E71F1D0
:1008B00000034EEA817EB0EB0E0061EB91014FEA3E
:1008C000101E4EEA017E10EB0E0041EB11114FEAB3
:1008D000102E4EEA016E10EB0E0041EB11214FEA93
:1008E000104E4EEA014E10EB0E0041EB1141401844
:1008F00041F100014FEAD00040EA41704FEAD101D6
:1009000010EB80054FEA810444EA907444EB010443
:100910006D1944EB0404521BA3414FF0000348BF80
:100920000A3200D530BD401C41F1000130BD2DE937
:10093000F0470D4699469246044600F124080168A6
:10094000880604D5E06921F01001216000E0012053
:10095000A84201DD471B00E00027A1697A1902EBDC
:100960000900081AA0612078C00602D42046FFF7CB
:10097000E6FC002608E0D4E901211AF806009047B9
:10098000206A401C761C20624E45F4DB2078C006AD
:100990000AD52046FFF7D3FC06E0D4E90121302038
:1009A0009047206A401C2062381EA7F10107F4DC42
:1009B00007E0D4E9012118F805009047206A401C9F
:1009C0002062281EA5F10105F3DC2046FFF7CDFCCF
:1009D0002078000602D50220BDE8F0870120FBE761
:1009E00070472DE9FF4F0C461E464FF0FF378BB086
:1009F000D2E90001DDF860800A908A46C1F30A5509
:100A000005B93D46002108464FF00000BAF1000F3D
:100A100000F4400005DA00EB80004FF4400101EAE9
:100A200050004FEA9059B9F1010F00DDB9460A981C
:100A300050EA4A000ED044F61050A5F2FF35454367
:100A40002F14B8F1000F1ED07542291E1EDDC9F10A
:100A500000021CE0B8F1010F4FF0000001D030217E
:100A600003E0F24305E02154401CB042FBDB30467A
:100A70000022002121540B99C1F80880C1E900200F
:100A80000FB0BDE8F08FBD1B6D1CDEE74A4600DAF3
:100A9000694206A800F0F0FB06AB93E8070003AB41
:100AA00083E8070050460A9900F0ADFC8DE8070086
:100AB000A0F500501F3800900398002D0ADD42F287
:100AC0001F014A460844002303A90390684600F02A
:100AD00016FF09E0A0F500504A461F38002303A97D
:100AE0000390684600F020FF8DE807000004000C2A
:100AF00003D04FF0FF30410800E01046B8F1000F7E
:100B000003D00022009215461EE0751E05D4FFF7A3
:100B1000C9FE303262556D1EF9D5B3460122084335
:100B200002D000227F1C04E02078302801D100226E
:100B30007F1E002A099784D01DE0112D07DAFFF7E8
:100B4000B1FE303262556D1C50EA0102F5D1084306
:100B500002D00098C8B10EE00021681E05E0235CB9
:100B6000625C63542254401E491C8142F7DBAB4651
:100B7000A81B401E0990002004F80B000B98099A4E
:100B8000C0F80880C0E9002B7AE711264FF0000872
:100B900057E72DE9F04F88460446D21D22F00701A1
:100BA00091B0D1E90001CDE90A0102F0C3FD02468E
:100BB0000B98C00F01D02D2007E02068810701D5D8
:100BC0002B2002E0202101EAC000032A099001D075
:100BD000072A05DB03464146204600F00DFB0BE1EA
:100BE0002078800601D5E06900E00620B8F1650FA5
:100BF000814606D0B8F1660F18D0B8F1670F70D1F2
:100C000031E00020B9F1110F009001DB112301E068
:100C100009F101030AAA01A90CA8FFF7E2FEDDE928
:100C20000C70002609F10105834647E001204B4680
:100C300000904FF000470AAA01A90CA8FFF7D1FEC7
:100C4000DDE90DB00C995D46002610B909F10100EF
:100C50000D18B9EB050003D4C0F1FF3609F1010509
:100C6000A5EB09002BE0B9F1010F01DA4FF0010902
:100C70000020B9F1110F0090484601DD112300E07A
:100C800003460AAA01A90CA8FFF7ABFEDDE90C7028
:100C90004D4600268346207800070AD4AB4500DA8B
:100CA0005D4601A8012D04DD411911F8011C302910
:100CB00007D04F4502DA17F1040F04DA012082460B
:100CC0000FE06D1EEEE7002F02DCED1B3E4403E05B
:100CD000781CA84200DD7D1CB81B00F1010A4FF012
:100CE00000472078000703D4AA4501DB4FF0FF3A04
:100CF0000021B7F1004F0DF143088DF8431024D0C7
:100D000002202B23002F01DA7F422D230A21021E0D
:100D1000A0F1010000DC5FB197FBF1FC97FBF1F261
:100D200001FB1C7C17460CF1300C08F801CDEEE7F6
:100D3000A8F1010003702188090501D5452100E0D3
:100D40006521A0F1010800F8011C09980FA9A1EB89
:100D50000807FF1D00B10120411901EBEA70A169EC
:100D60003844081A401EA0612078C00602D42046EC
:100D7000FFF7E5FA099828B1D4E901219047206AE4
:100D8000401C20622078C00622D52046FFF7D7FA03
:100D90001EE0002E04DBB34502DD01A8805D00E00B
:100DA0003020D4E901219047206A401C2062761C43
:100DB000AAF101005FEA000A0AD100F019FAC0683E
:100DC0000168405CD4E901219047206A401C206200
:100DD000281EA5F10105DCDC07E0D4E9012118F8A3
:100DE000010B9047206A401C2062381EA7F10107C2
:100DF000F3DC2046FFF7B9FA032011B041E600000A
:100E00002DE9F04F04460D46D21D22F0070089B0AF
:100E1000D0E900974846394602F08CFC0246F80FAC
:100E200001D02D2307E02068810701D52B2302E0A4
:100E3000202101EAC0038DF820300BB1012000E031
:100E40000020032A824601D0072A04DB29462046D7
:100E500000F0D2F93FE12078800601D40D2500E0B2
:100E6000E569C7F30A560D2D49DA00214FEA175BF1
:100E700008464FF00000002F00F4400007DA00EBB6
:100E800080004FF4400100EBD07001EA6000811552
:100E9000012901DD4FF0FF3100224FEA850CBCF142
:100EA000180F06D31346ACF118004FF08052C24021
:100EB00003E04FF4801323FA0CF30CF10C0CBCF19B
:100EC000200F04D3ACF1200C09FA0CF001E007FA72
:100ED0000CF000294FF0004801DD18B90FE00ED1E9
:100EE00040450CD319EB02095F4121B9404502D1BD
:100EF0009F4329EA0209BBEB175F00D0761C2088CC
:100F0000000502D57B48784402E07A4878441938D5
:100F100008AA302302F80A30037C0AF10101002EEE
:100F20000AF1020A53546A4602DC4FF0300101E034
:100F30004FF031014FF001088DF8001002D0A6F2F9
:100F4000FF3603E059EA470100D06B4E002D02DC6A
:100F50002178090704D54FF002082E218DF80110E1
:100F6000C44600210BE0C7F303433F01C35C491CA7
:100F70006D1E02F80830052908F1010801DA002D7C
:100F8000F1DC00210CE000EB1973491C1B786D1E8D
:100F9000082902F808304FEA091908F1010801DAB6
:100FA000002DF0DC21688B0602D516E0A8F10108BF
:100FB000E04505DD02EB080313F8013C302BF5D0CA
:100FC000B8F1000F09DD02EB080313F8013C2E2BEA
:100FD00003D1090701D4A8F10108002D05DD3E2148
:100FE00002F808106D1E08F10108407C002E02F87E
:100FF000080008F1010804DA2D20764202F8080002
:1010000002E02B2002F808000A214FF47A70864291
:1010100008F101080BDB96FBF0F3303302F80830DF
:1010200096FBF0F308F1010800FB136601E0642E63
:101030000CDB642096FBF0F3303302F8083096FBAB
:10104000F0F308F1010800FB136601E00A2E06DB4D
:1010500096FBF1F0303002F8080008F1010896FB29
:10106000F1F001FB1060303002F80800A16908F1CE
:10107000010808EB050202EB0A00081AA0612078BB
:10108000C00602D42046FFF75AF9216A08AE01EBE8
:101090000A00206204E0D4E9012116F8010B904710
:1010A000BAF1010AF7D22078C00602D52046FFF730
:1010B00046F96E4609E016F8010B3E280FD0D4E938
:1010C00001219047206A401C2062B8F10108F2D249
:1010D0002046FFF74AF909B00320BDE8F08F206AE7
:1010E0002844206203E0D4E90121302090476D1E9E
:1010F000EBD3F8E7C629000002FCFFFF10B54369F7
:1011000013B1AFF3008001E0FFF752F9012010BDE9
:10111000127800F124010A7000224A700122EDE7E2
:1011200011684FF0FF32E9E710B5436913B1AFF32F
:10113000008001E0FFF7D4F9012010BD128800F112
:10114000240182840022C2840122EDE711684FF05D
:10115000FF32E9E770B516460C46054600F040F848
:10116000036893F80101012806D0FF2C0FD8185D01
:1011700068B101202C7070BDD3F8070132462146BA
:1011800003F2071303442846BDE8704018474FF0A8
:10119000FF3070BD754600F0EBF8AE4605006946BD
:1011A000534620F00700854618B020B5FFF7A0F899
:1011B000BDE820404FF000064FF000074FF0000858
:1011C0004FF0000B21F00701AC46ACE8C009ACE8D9
:1011D000C009ACE8C009ACE8C0098D467047000002
:1011E00010B500F005F8001D10BD00BF512600002D
:1011F00000487047640100202DE9F0411F46044675
:1012000003260168072A01F4006004DB08B116A573
:1012100005E016A503E008B115A500E015A521F02D
:1012200010002060A069C01EA0610FB1401EA06127
:101230002046FFF784F84FB1D4E9012138469047A2
:10124000206A401C2062C01C206206E0206AFAE787
:10125000D4E9012115F8010B9047761EF8D22046FB
:10126000FFF783F8BDE8F0814E414E006E616E00DD
:10127000494E4600696E66002DE9F04781461646E4
:101280008AB0354878440DC88DE80D00324878445E
:10129000801C03AC0DC884E80D0041F69B30084467
:1012A000372190FBF1F290FBF1F5A5F1800501FBF0
:1012B00012041B3C02D56442012000E00020DFF84C
:1012C00098A080460027FA44AAF1BE0A0EE0E00783
:1012D0000AD03246684607EB470101230AEB810139
:1012E00000F022FB8DE8070064107F1C002CEED17B
:1012F000194F7F44AE3F19E0E80715D007EB041003
:101300000DF1180A90E80E008AE80E00C068F0425D
:1013100001D1981908903246012306A903A800F0CC
:1013200003FB03AB83E807006D10641C002DE3D1C1
:101330004FF0010332466946B8F1000F03A802D00E
:1013400000F0DDFA01E000F0EFFAC9E90001C9F8A8
:1013500008200AB0BDE8F087D826000010B5044682
:10136000AFF300802046BDE81040FEF7ACBF0000A0
:1013700000487047440100204FF0013C50F8042B16
:1013800051F8043B9A4221D1A2EB0C03934313EA98
:10139000CC1317D150F8042B51F8043B9A4215D1C5
:1013A000A2EB0C03934313EACC130BD150F8042B9C
:1013B00051F8043B9A4209D1A2EB0C03934313EA80
:1013C000CC13DBD04FF00000704700BFD01A01BA39
:1013D000B1FA81F101F0180122FA01F0CB40C1F11C
:1013E0002001DBB2C0B2C01A2CFA01F3D11A91432A
:1013F00011EAC311E6D1704701491820ABBEFEE7E0
:101400002600020070475FEA400C08BF91F0000F11
:101410004FEA8C234FEAC12243EA51514FEA1C5054
:1014200018BF00F5F0404FEA300018BF41F000410E
:101430005FEA6C5C00F02980BCF1FF3F08BF40F020
:1014400080407047130C06BF12044FF0100C4FF091
:10145000000C130E04BF12020CF1080C130F04BF92
:1014600012010CF1040C930F04BF92000CF1020C5A
:10147000D30F04BF52000CF1010C11464FF00002D3
:10148000A0F11F00A0EB0C00704711F0004F08BF47
:10149000704731F000413FF4D5AF0B0C06BF090493
:1014A0004FF0100C4FF0000C0B0E04BF09020CF1B2
:1014B000080C0B0F04BF09010CF1040C8B0F04BFC7
:1014C00089000CF1020CCB0F04BF49000CF1010C98
:1014D000CCF12003A0EB0C0022FA03F302FA0CF289
:1014E00041EA030100F10100704720F07F4C80EADF
:1014F000030023F07F47ACEB070303F57C5300F0B8
:10150000004003F1FF032DE980494FEA154B09B470
:101510004FEA144325EA0B4E24EA03480FF204264F
:1015200006EB132749083E785FEA320203FB0667A1
:10153000C7F5000707FB06F64FEA54374FEAD646D1
:1015400006F1020607FB066CCCF1005C4FEA1C4773
:101550002CEA074C07FB06F40CFB06F504EB1546DA
:101560004FEA961634BF00204FF000404FEAD137C3
:1015700006FB07FC4FEA1C4C0CFB0BF7D21B03FBD2
:101580000CF761EB07010CFB0EF7B0EB074072EBB9
:1015900017420CFB08F734BFA2EB0742B2EB07423D
:1015A00061EB17414FEA0C444FEA910706FB07FC39
:1015B0004FEA1C4C0CFB0BF7B0EBC74072EB5732F9
:1015C00003FB0CF734BFA2EBC742B2EBC74261EB9F
:1015D00057310CFB0EF7B0EBC70072EB57720CFBE8
:1015E00008F734BFA2EBC702B2EBC70261EB577139
:1015F000039F4FEA816141EA921104EBCC044FEA68
:10160000D1374FEA826206FB07FC42EA90124FEAAA
:1016100080604FEA1C4C0CFB0BF7D21B03FB0CF752
:1016200061EB07010CFB0EF7B0EB074072EB1742C2
:101630000CFB08F734BFA2EB0742B2EB074261EBA9
:1016400017414FEA8C554FEA910704EB9C2406FBA7
:1016500007FC4FEA1C4C0CFB0BF7B0EBC74072EBDE
:10166000573203FB0CF734BFA2EBC742B2EBC742C1
:1016700061EB57310CFB0EF7B0EBC70072EB577202
:101680000CFB08F734BFA2EBC702B2EBC70261EB59
:10169000577115EB4C254FEA816141EA92114FEAEF
:1016A00082624FEAD13742EA901206FB07FC44F10E
:1016B00000044FEA80604FEA1C4C0CFB0BF7D21B76
:1016C00003FB0CF761EB07010CFB0EF7B0EB0740D7
:1016D00072EB17420CFB08F734BFA2EB0742B2EBE8
:1016E000074261EB174115EB1C154FEA813141EAC6
:1016F00092414FEA823242EA90424FEA80304FEA0A
:101700000C7644F1000448EA03434EEA0B484FF0DC
:10171000000EB2EB080C71EB030724BF624639469A
:101720004EEB0E0E4FF0000B0018524149414BEBAF
:101730000B0BB2EB080C71EB03077BF1000B24BF22
:10174000624639464EEB0E0E4FF0000B0018524128
:1017500049414BEB0B0BB2EB080C71EB03077BF130
:10176000000B24BF624639464EEB0E0E51EA0207CB
:1017700018BF46F0010616EB0E7655F1000254F143
:10178000000103D5BDE88901BDE80088BDE88901F5
:10179000BDE80048B619524141EB0101A3F1010334
:1017A000704780807F7E7D7C7B7A797877767675CE
:1017B0007473727171706F6E6E6D6C6C6B6A6A6946
:1017C0006868676666656464636362616160605FE0
:1017D0005F5E5E5D5D5C5C5B5B5A5A595958585759
:1017E00057565655555554545353525252515150C1
:1017F00050504F4F4F4E4E4D4D4D4C4C4C4B4B4B14
:101800004A4A4A4949494848484747474746464659
:101810004545454444444443434343424242424194
:101820004141002B9C4630D477002BD01CB54FEAA9
:10183000370703B44FF010004FF01001BAF1000F5A
:1018400006D0BCF1000FDCBF40F0080040F00801FA
:101850004FF000000FBCBDE810400BF1010BBBF1D5
:10186000010F08BF5FEA170722BF12F1010211F151
:1018700001014FF0004143F1000300F0004043EA52
:1018800000007047F9D35708D0E746EA064613F13F
:10189000400F4FEA16461FDD13F1200FDFBF16433E
:1018A0000A46002120335B42BED0C3F1200746EA3E
:1018B000064602FA07F74FEA164646EA0706C3F15C
:1018C000200722FA03F201FA07F721FA03F14FF099
:1018D000000342EA0702A7E746EA020646EA06468E
:1018E0004FEA164646EA0106BCBF46EA0646360CF3
:1018F0004FF000034FF000024FF0000194E72DE994
:10190000804C9A46934670B491E8380007C831EA93
:10191000400C48BF34EA430C03D5FFF7E6FDFFF760
:1019200080FFF0BCBDE8008C2DE9804C9A469346C0
:1019300070B491E8380007C810F0804F08BF13F06A
:10194000804F03D100F005F8FFF76BFFF0BCBDE856
:10195000008C20F07F4780EA030023F07F4C07EBE8
:101960000C03A3F57C5300F00040A3F1FE0392F0BA
:10197000000F00F0B38095F0000F00F077802DE9A4
:1019800001494FEA11404FEA144621EA004800FBA2
:1019900006FC24EA064708FB06F607FB08F800FBEE
:1019A00007F718EB06484CEB164C4FEA124B18EBB6
:1019B00007484FEA15464CEB174022EA0B4E0BFB4B
:1019C00006FC25EA06470EFB06F607FB0EFE0BFBA0
:1019D00007F71EEB064E4CEB164C4FF000061EEBC5
:1019E000074E4CEB174B18EB0B0840F1000018EBBF
:1019F0000E0B58EB000840F100008F1A4FF0000169
:101A00003CBFC943661B14BFB5EB040C00213CBFAF
:101A1000C943F61B4FEA17444EEA8E0E27EA0445E7
:101A20004FEA1C4704FB07622CEA074C05FB07F74B
:101A30000CFB05F604FB0CFC16EB074642EB1742C9
:101A400016EB0C4642EB1C421BEB060658EB02025F
:101A5000414146EA9E0601D5BDE80189B6195241C9
:101A600041EB0101A3F10103BDE801894FEA1445EF
:101A70004FEA114724EA054621EA074C05FB07F423
:101A800006FB07F70CFB06F105FB0CFC11EB07410D
:101A900044EB17444FEA124711EB0C4144EB1C4452
:101AA00022EA074C05FB07F206FB07F70CFB06F6DC
:101AB00005FB0CFC16EB074642EB174216EB0C46F7
:101AC00042EB1C456A1854F1000148BF7047B61933
:101AD000524141EB0101A3F10103704795F0000F62
:101AE00037D04FEA11424FEA144721EA024624EA6E
:101AF000074C02FB07F106FB07F70CFB06F402FBA1
:101B00000CFC14EB074441EB17414FEA154714EB6B
:101B10000C4441EB1C4125EA074C02FB07F506FB90
:101B200007F70CFB06F602FB0CFC16EB074645EB31
:101B3000174516EB0C4645EB1C42121951F10001FA
:101B400048BF7047B619524141EB0101A3F10103AF
:101B500070474FEA14454FEA114724EA054621EA47
:101B6000074C05FB07F106FB07F70CFB06F24FF0ED
:101B7000000605FB0CFC12EB074241EB174112EB90
:101B80000C4251EB1C4148BF7047921841EB0101D8
:101B9000A3F101037047000070B504460D4600260E
:101BA0002A48008C40F255518843284908844FF454
:101BB0006041274800F055FA0020244948638863B3
:101BC000C863012C04D0022C08D0032C12D10BE0E6
:101BD000204800881D49486301260FE01D484088C1
:101BE0001A498863102609E01A4880881749C86393
:101BF0008E1503E000201849087070BD00BF012D4C
:101C000004D0022D08D0032D12D10BE04FF4005167
:101C10000F4800F029FA0FE04FF480410C4800F023
:101C200023FA09E04FF40041094800F01DFA03E0EF
:101C3000002009490870E0E700BF07480470034826
:101C4000008C30430149088400BFD6E70000014002
:101C500000040240160000201C00002070B504465D
:101C60000D464DBB072C23D2DFE804F02218041DDB
:101C70000E13090002210120FFF78EFF1BE0032154
:101C80000120FFF789FF16E003210220FFF784FF00
:101C900011E001210220FFF77FFF0CE0012103206A
:101CA000FFF77AFF07E002210320FFF775FF02E04C
:101CB00000F044F900BF29E0072C23D2DFE804F04C
:101CC0002209130E1D04180002210120FFF764FFF2
:101CD0001BE003210120FFF75FFF16E00321022034
:101CE000FFF75AFF11E001210220FFF755FF0CE03A
:101CF00001210320FFF750FF07E002210320FFF737
:101D00004BFF02E000F01AF900BF00BF70BD0000F9
:101D100000B58FB00121032000F026FE0121084606
:101D200000F042FE01220821564800F06EF901221F
:101D30000921544800F069F901220A21514800F0B4
:101D400064F902208DF8380000208DF83A004FF435
:101D5000E0600D9002208DF83B0003208DF83900E3
:101D60000DA9484800F009F901208DF838004FF41A
:101D700060400D900DA9444800F0FFF84FF4604119
:101D8000414800F06EF90020ADF83000ADF82A00AF
:101D900042F2CF000B900020ADF828008DF8320001
:101DA0000AA93A4801F078FA0020ADF82400602032
:101DB000ADF814000020ADF82600ADF82200ADF813
:101DC0002000ADF81800ADF81600079005A92F48BF
:101DD00001F046F905A92D4801F080F905A92B4825
:101DE00001F0CEF90020ADF81400ADF81600ADF802
:101DF000180041F26800079005A9244801F010FA84
:101E00004FF48040ADF810000020ADF80C004FF406
:101E10000050ADF80E002A20ADF80A000020ADF801
:101E200008004FF48060ADF806004000ADF80400F3
:101E300001A9164801F0CCF81021144801F0D8F897
:101E400001221021114801F002F94FF4A06000F0C6
:101E50002FFC1B208DF8000001208DF803000020CE
:101E60008DF801008DF80200684600F0E5FB0121C5
:101E7000064801F0C0F80121044801F0C8F80FB08D
:101E800000BD0000000002400004024000000140CC
:101E900010B5B0F57A7F01DD4FF47A70B1F57A7F35
:101EA00001DD4FF47A71B2F57A7F01DD4FF47A7279
:101EB00040F20D2343434FF4FA7404EB0313640020
:101EC000B3FBF4F31A4C238040F20D234B434FF441
:101ED000FA7404EB03136400B3FBF4F3144C638053
:101EE00040F20D2353434FF4FA7404EB03136400E0
:101EF000B3FBF4F30E4CA3800E4B1B78012B04D0E4
:101F0000022B07D0032B0FD109E0094B1B880A4C89
:101F100063630AE0064B5B88074CA36305E0044B50
:101F20009B88054CE36300E000BF00BF10BD0000CC
:101F3000160000201C0000200000014010B50A48D7
:101F4000008C40F255518843074908844FF46041A2
:101F5000064800F086F80020034948638863C86398
:101F60000349087010BD0000000001400004024059
:101F70001C00002000BFFEE77047F0B50A460021B4
:101F80000023002400BF3DE0012505FA01F3156898
:101F900005EA03049C4234D105684F000326BE4085
:101FA000B543056015794E00B540066835430560B8
:101FB0001579012D02D01579022D16D185684F00B3
:101FC0000326BE40B543856055794E00B54086680E
:101FD00035438560456801268E40B54345604568B8
:101FE00096798E40B6B235434560C5684F000326EA
:101FF000BE40B543C560D5794E00B540C66835438F
:10200000C560491C1029BFD3F0BDF0B500230024E2
:102010004D07ED0E02FA05F3CE1000F1200555F83C
:1020200026504E07F70E0F26BE40B543CF1000F1E5
:10203000200646F82750CE1000F1200555F826500E
:1020400045EA0304CE1000F1200545F82640F0BD16
:102050000246002013690B400BB1012000E0002074
:1020600070470A0482617047816170472DE9F04131
:1020700004460D46204600F08DF830B9FFF75EFFAC
:1020800000201E490870BDE8F0811C48007850B956
:102090001B4801782046FFF7E1FD184804701948F5
:1020A00005600420EFE715480078844201D1002044
:1020B000E9E7144800682F1AB7F5967F01D200208F
:1020C000E1E70E48007800F01FF8A04201D1012698
:1020D00008E00A48007800F02EF8A04201D102265C
:1020E00000E00326064801782046FFF7B7FD0348C5
:1020F0000470044805603046C5E700005400002025
:1021000029000020580000200146072911D2DFE8ED
:1021100001F0100A06080E0C04000220704703208C
:10212000FCE70120FAE70520F8E70420F6E706209F
:10213000F4E70020F2E70146072911D2DFE801F0B9
:10214000100A0E0C06080400042070470520FCE766
:102150000120FAE70320F8E70220F6E70620F4E77B
:102160000020F2E71CB50121042000F0FDFB002057
:102170008DF804004FF4E070009001208DF8070006
:1021800002208DF8050069460148FFF7F6FE1CBDE8
:10219000000802400146012903DB062901DC012079
:1021A00070470020FCE700BFFEE700001CB50121DE
:1021B000062000F0D9FB00208DF8040041F6024013
:1021C000009001208DF8070002208DF80500694677
:1021D0000948FFF7D2FE00208DF80400202000906F
:1021E00001208DF8070002208DF80500694603489C
:1021F000FFF7C3FE1CBD00000004024000080240BF
:1022000010B535480078002844D020213348FFF726
:102210001FFFB0B102213248FFF71AFF88B14FF417
:1022200080612F48FFF714FF58B14FF400612C482C
:10223000FFF70EFF28B14FF480512948FFF708FF40
:1022400040BB00202449087020212448FFF700FFEC
:1022500008B9012010BD02212148FFF7F9FE08B995
:102260000220F7E74FF480611D48FFF7F1FE08B93F
:102270000320EFE74FF400611948FFF7E9FE08B9C2
:102280000420E7E74FF480511548FFF7E1FE08BB53
:102290000520DFE720211148FFF7DAFE012819D1D8
:1022A00002210F48FFF7D4FE012813D181020C4808
:1022B000FFF7CEFE01280DD1C1020948FFF7C8FE85
:1022C000012807D101030648FFF7C2FE012801D10A
:1022D000014908700020BDE71D00002000080240F1
:1022E0000004024000BFFEE710B51C48007800B9AA
:1022F00010BD1B48007890B11A480068B0F52F7FD8
:1023000029DD1848006864381649086008460068E6
:10231000B0F52F7F1FDA4FF42F7008601BE01248D2
:102320000088052804DD10480088401E0E490880FA
:102330000E48007878B90C48008800EB80004FF612
:10234000FF7101EA40000A490880084602880188B6
:102350000088FFF79DFD00BFCAE7000028000020AD
:102360002A000020100100202C0000204B0000203B
:102370002E00002001480088704700002E00002039
:1023800001480068704700003400002001480068E0
:1023900070470000300000200348007810B1034867
:1023A000006870470020FCE72A0000201001002090
:1023B0000148006870470000240C004010B51D481B
:1023C000007800B910BD1C480078A0B11B48006817
:1023D00040F6AC5188422ADA184800686430174940
:1023E00008600846006840F6AC5188421FDD084688
:1023F000124908601BE0124800880C2804DA1048D3
:102400000088401C0E4908800E48007878B90C48B6
:10241000008800EB80004FF6FF7101EA40000A4996
:1024200008800846028801880088FFF731FD00BF58
:10243000C8E70000280000202A000020100100202A
:102440002C0000204B0000202E00002010B500F0D2
:10245000DDFB00F0ABF900F0B9F810BD01480078E1
:10246000704700002800002010B51C4804681C4874
:10247000007898B1204600F0B1FB20B119480078EF
:1024800008B100F0A3F81848007838B11748006880
:10249000201A1749884201D300F098F815480078AF
:1024A000D0B10020134908700D480078A0B10E4843
:1024B000007888B90B48007870B10F4800680F4960
:1024C0004860084600F0FEF80D490880084602887A
:1024D00001880088FFF7DCFC10BD0000240C0040E0
:1024E000280000202A0000204B000020500000207F
:1024F000400D0300250000203400002010010020C2
:102500002E000020B0F52F7F02DA4FF42F7004E088
:1025100040F6AC51884200DD08460149086070472A
:102520001001002070B51F48007800B170BD00F0A8
:10253000BFFA054600F0E6FB01201B4908700020A9
:102540001A4908701A4908701A4800681A49086040
:1025500000201A490870184800681949086019498C
:10256000086800F0F1FB064600F04EF964201649B9
:1025700008800846028801880088FFF789FC0E4819
:1025800001682846FFF772FD04462CB122460A482E
:102590000168284600F0F0FB01200249087000BFE6
:1025A000C4E70000280000204B0000204C00002061
:1025B0004D000020240C004050000020540000205A
:1025C00058000020100100202E00002010B500202F
:1025D0000A4908700A4908700A4908700A490870CF
:1025E0000A490880FFF7AAFC00F08CFB084908683C
:1025F00000F0AAFB044600F007F910BD28000020F7
:102600004B0000204D000020540000202E00002030
:10261000100100200548007838B90548007808B94D
:10262000012000E0002002490870704728000020C7
:10263000290000207047000070B5002100230F2200
:10264000C4781CB3174C246804F4E064C4F5E06457
:10265000C4F30721C1F10404E3B20A4144789C4069
:10266000E1B28478144021430C07210E0E4C05780A
:102670006155047804F01F050124AC4005786D1104
:10268000AD0005F1E025C5F8004109E0047804F04B
:102690001F050124AC40054D0678761145F826400B
:1026A00070BD00000CED00E000E400E080E100E01F
:1026B00002490143024A1160704700000000FA0518
:1026C0000CED00E00146D1E90002801A8860D1E9F2
:1026D0000202801A00EE900AF8EEE00A91ED041A68
:1026E00060EE810AD1ED051A91ED021AB8EEC11A19
:1026F00041EE810AB0EE600AD1ED0B0AF8EEE00A75
:10270000F4EEC00AF1EE10FA06D2D1ED0B0AF8EEA3
:10271000E00AB0EE600A12E0D1ED0C0AF8EEE00A31
:10272000F1EE600AF4EEC00AF1EE10FA07DDD1ED29
:102730000C0AF8EEE00AF1EE600AB0EE600AD1EDA4
:10274000070A70EE800AC1ED070A91ED071AD1ED74
:102750000A0AF8EEE00AB4EEE01AF1EE10FA06DD2D
:10276000D1ED0A0AF8EEE00AC1ED070A10E091ED9A
:10277000071AD1ED090AF8EEE00AB4EEE01AF1EE1C
:1027800010FA05D2D1ED090AF8EEE00AC1ED070A08
:10279000D1ED070AB6EE001A70EE810AFDEEE00AEE
:1027A000C1ED080A8868C860086A70474FF47A70FB
:1027B00010490860002048608860C8609FED0E0ADC
:1027C000084680ED040A9FED0D0A80ED050A9FED95
:1027D0000C0A80ED060A9FED0B0A80ED070A3220F5
:1027E000086248626E2088620220C8620520086381
:1027F00070470000100100200AD7A33C0AD7233BF2
:1028000000000000000048420C49896A814201DA58
:102810000A49886A0949496A814201DD0749486ACB
:102820000021064A51609160D16000EE100AB8EEB6
:10283000C00A114681ED070A0862704710010020A6
:10284000704710B50446062C13D2DFE804F01203DB
:1028500006090C0FFFF766FE0CE0FFF7B7FE09E074
:10286000FFF7ACFD06E0FFF73FFD03E0FFF7D2FE08
:1028700000E000BF00BF10BD10B504463648007828
:1028800048B3302C14DB392C12DC3448006834494E
:10289000884209D2A4F130003049096801EB810176
:1028A00000EB41002D49086001202E49087010BD41
:1028B0002C48007818B129480068FFF723FE002053
:1028C0002549087027490870244908600D2C01D05B
:1028D0000A2C00D1EBE7562C30D00EDC522C19D04C
:1028E00006DC2B2C1ED02D2C21D0442C30D121E005
:1028F000532C13D0552C2BD115E0732C0FD004DCA6
:10290000642C18D0722C23D105E0752C0CD0762CB9
:102910001ED114E000BFFFF705FE1AE000BFFFF76D
:1029200055FE16E000BF00BFFFF748FD11E0FFF7BE
:10293000DBFC0EE000BFFFF76DFE0AE000BF0120E8
:10294000054908700020074908700449086000E044
:1029500000BF00BF00BFAAE7040000200000002065
:10296000A08601000500002029B1064A1268024332
:10297000044B1A6004E0034A12688243014B1A6058
:10298000704700003038024029B1064A12680243FD
:10299000044B1A6004E0034A12688243014B1A6038
:1029A000704700004038024029B1064A12680243CD
:1029B000044B1A6004E0034A12688243014B1A6018
:1029C0007047000044380240F0B500210022002486
:1029D000022500260223324F3F6807F00C0121B187
:1029E000042905D0082937D105E02E4F076036E0CD
:1029F0002D4F076033E02A4F3F1F3F68C7F38056D3
:102A0000274F3F1F3F6807F03F036EB1264FB7FBCC
:102A1000F3F7DFF88CC0ACF1040CDCF800C0CCF3A9
:102A2000881C07FB0CF40CE01E4FB7FBF3F7DFF834
:102A300070C0ACF1040CDCF800C0CCF3881C07FBC0
:102A40000CF4174F3F1F3F68C7F301477F1C7D0001
:102A5000B4FBF5F7076002E0124F076000BF00BF4C
:102A60000F4F3F6807F0F0010909104F7A5C0768C3
:102A7000D74047600A4F3F6807F4E051890A0B4F7F
:102A80007A5C4768D7408760054F3F6807F460412C
:102A9000490B064F7A5C4768D740C760F0BD00001D
:102AA000083802400024F40040787D010600002030
:102AB0002DE9F041002440210B48FFF7C9FA0546F3
:102AC00080210948FFF7C4FA06464FF48071064892
:102AD000FFF7BEFA0746B80040EA46002843C4B2F2
:102AE0002046BDE8F0810000000802407047000069
:102AF0000CB50020019000903448006840F480300C
:102B00003249086000BF3148006800F4003000908E
:102B10000198401C0190009818B90198B0F5A04F99
:102B2000F1D12A48006800F4003010B10120009073
:102B300001E0002000900098012846D12348403051
:102B4000006840F08050214940310860204800680A
:102B500040F440401E4908601C48083000681B498A
:102B6000083108600846006840F4004008600846E4
:102B7000006840F4A05008601648091F0860081F4C
:102B8000006840F08070091F086000BF0F480068AF
:102B900000F000700028F9D040F205700E4908607E
:102BA0000A480830006820F003000849083108602E
:102BB0000846006840F00200086000BF0348083083
:102BC000006800F00C000828F8D10CBD0038024065
:102BD0000070004019544007003C024010B5044604
:102BE0000748007848B107480068201A064988421B
:102BF00003DD00F087F8012010BD0020FCE7000095
:102C0000380000203C000020E09304000EB50121B4
:102C10000820FFF7B9FE0020ADF80800ADF802006B
:102C20005320ADF800004FF0FF30019000208DF8E8
:102C30000A006946034800F02FFB0121014800F01B
:102C4000DAF90EBD000C00400021084A1160084A64
:102C50001170084A1170002005E00021064A42F870
:102C60002010411CC8B20528F7DB70474400002043
:102C70004800002049000020FC00002001461D48BB
:102C8000007805280FDA1C481C4A127840F82210F8
:102C90001B48006808441A4A106016480078401C17
:102CA000144A107013E01448144A127850F82200A5
:102CB000134A1268101A124A10600F480F4A12780D
:102CC00040F822100E48006808440D4A10600B4876
:102CD0000078401C094A107010460078052801DB76
:102CE0000020107006480068024A1278B0FBF2F02B
:102CF0007047000049000020FC0000204800002030
:102D00004400002010B50020084908600849086008
:102D100008490870084908700849086008490860AF
:102D200008490870FFF790FF10BD00003000002038
:102D30003400002038000020390000203C00002032
:102D4000400000204A0000200146B1F52F7F01DC41
:102D50003220704740F6A660814201DB6E20F8E722
:102D6000A1F52F70C0EB0010800040F6EA3290FB16
:102D7000F2F03230EDE700002DE9F04106460C4656
:102D80001546042D07D12C4806702C4804602C48A9
:102D90000460BDE8F081032D11D127480670274853
:102DA00004602748046000202649087026490870FE
:102DB0002649086026490860FFF746FFE9E7012D2C
:102DC00002D0022D00D0E4E71B4806701B480460C7
:102DD0001D480078A8420ED01B48057000201949F4
:102DE00008701748046000201849086018490860F6
:102DF000FFF72AFFCDE713480078401C11490870FF
:102E000008460078062814DB0D480068271A0C488D
:102E100004600020087067B10E4800EB5700B0FB5B
:102E2000F7F00A49086008460068FFF727FF0849DD
:102E3000086000BFADE70000380000203C00002023
:102E400040000020390000204A000020300000200F
:102E500034000020C0E1E4007047000010B51548C0
:102E6000006840F47000134908601348006840F09F
:102E700001001149086000200F49083108600E4820
:102E800000680E4908400C4908600D48091D08609B
:102E9000081F006820F48020091F086000200649F0
:102EA0000C310860FFF724FE4FF0006001498039C3
:102EB000086010BD88ED00E000380240FFFFF6FE1C
:102EC0001030002470B510212E4800F0AFF8002813
:102ED00057D010212B4800F08BF82B4800780028A1
:102EE0004FD0FFF7E5FD06462848056829463046DD
:102EF000FFF7BCF80446002C42D022462946304653
:102F0000FFF73AFF22480078002839D0012C01D081
:102F1000022C2ED11F480078A04205D01D48047015
:102F200001201D49087004E01B480078401C1A4924
:102F3000087019480078062822DB00201449087020
:102F40001648007820B11648008C1649088009E020
:102F50001548008800EB80004FF6FF7101EA400041
:102F6000104908800F48028801880088FEF790FF0A
:102F700006E0032C04D100200649087006490870B9
:102F800000BF70BD0000014028000020240C00405C
:102F90004B0000204D0000204C0000202A000020A3
:102FA000100100202E0000202C00002010B501216F
:102FB000054800F03BF830B10121034800F018F853
:102FC00001200249087010BD0004004025000020C7
:102FD0000A884B881A438B881A43CB881A430B897B
:102FE0001A434B891A438B891A43A0F8442070472F
:102FF000CA430282704721B1028842F00102028076
:1030000004E002884FF6FE731A400280704731B127
:10301000B0F8442042F40042A0F8442005E0B0F8A3
:103020004420C2F30E02A0F84420704730B5024697
:10303000002000230024158A05EA0103958905EA8A
:10304000010413B10CB1012000E0002030BD1AB121
:1030500083890B43838102E083898B43838170479B
:1030600070B5002400220023058C4FF6FE76354013
:103070000584028C8388048B4FF68F752C40B51E17
:103080002C400D882C43751E2A408D892A434D887B
:103090002A43104DA84202D00F4DA84213D14FF63B
:1030A000F7752A40CD892A434FF6FB752A408D8853
:1030B0002A434FF6FF652B404FF6FF552B400D8AF4
:1030C0002B434D8A2B43838004838D6845630284A0
:1030D00070BD0000000001400004014070B50024F4
:1030E00000220023058C4FF6EF7635400584028CD4
:1030F0008388048B48F6FF752C404FF6FF452C4023
:103100000D884FF6FF7606EA05252C434FF6DF754E
:103110002A408D8906EA05152A434D8806EA0515D9
:103120002A43154DA84202D0144DA8421DD14FF696
:103130007F752A40CD894FF6FF7606EA05152A43AA
:103140004FF6BF752A408D8806EA05152A434FF6CB
:10315000FF352B404FF2FF752B400D8A06EA85059F
:103160002B434D8A06EA85052B43838004838D68B3
:103170008563028470BD000000000140000401402E
:1031800070B5002400220023058C4FF6FF66354001
:103190000584028C8388848B4FF68F752C404FF604
:1031A000FC752C400D882C434FF6FF552A408D8925
:1031B0004FF6FF7606EA05252A434D8806EA0525DF
:1031C0002A43154DA84202D0144DA8421DD14FF2FA
:1031D000FF752A40CD894FF6FF7606EA05252A437A
:1031E0004FF6FF352A408D8806EA05252A434EF61C
:1031F000FF752B404DF6FF752B400D8A06EA05152D
:103200002B434D8A06EA05152B43838084838D6802
:10321000C563028470BD000000000140000401404D
:1032200070B5002200230024058C4EF6FF76354051
:103230000584038C8488828B48F6FF752A404FF6FC
:10324000FF452A400D884FF6FF7606EA05252A43FA
:103250004DF6FF752B408D8906EA05352B434D88C9
:1032600006EA05352B430A4DA84202D0094DA84273
:1032700008D14BF6FF752C400D8A4FF6FF7606EA13
:1032800085152C43848082838D680564038470BD1A
:10329000000001400004014000220288184B9842BF
:1032A0000ED0184B98420BD0B0F1804F08D0164B7F
:1032B000984205D0154B984202D0154B984204D144
:1032C0004FF68F731A404B881A43124B984207D01F
:1032D000114B984204D04FF6FF431A400B891A4312
:1032E00002804B68C3620B880385054B984202D06D
:1032F000044B984201D18B7A038601238382704765
:1033000000000140000401400004004000080040AB
:10331000000C004000100040001400401FB50121C7
:103320000220FFF731FB0020ADF80C00ADF80600DD
:103330005320ADF8040042F20F70029000208DF887
:103340000E0001A90F48FFF7A7FF01210D48FFF765
:103350004FFE012211460B48FFF779FE1D208DF824
:10336000000001208DF803008DF8010000208DF889
:1033700002006846FFF760F901210248FFF73BFEB3
:103380001FBD0000000400400FB438B5134800789A
:1033900018B1002038BC5DF814FB05A80090104857
:1033A000009A0499FCF7B6FF044600200090002C18
:1033B00001DD802C01DB0020ECE7002009490880BA
:1033C00009490C80012005490870012240F227714B
:1033D000064800F0B9F80120DCE7000022000020D8
:1033E0005C000020200000201E0000200010014092
:1033F00070B540F22551204800F07CF8C0B11E485D
:1034000000F032F9C5B21D490978481CC11700EB1C
:10341000D1614911A0EB4111CCB219480078844226
:1034200005D018481549097845541448047000BF60
:1034300040F22771104800F05DF8D8B112480088BA
:103440001249098888420CDA11480F4A1288815CB7
:10345000094800F00EF90C480088401C0A49088011
:1034600008E0002240F22771034800F06DF80020C8
:103470000849087070BD00000010014023000020C2
:1034800024000020DC000020200000201E0000207E
:103490005C00002022000020014629B10C48007881
:1034A0000C4A1278904201D1002070470A48084A1D
:1034B0001278805C0870064A1278501CC21700EB24
:1034C000D2625211A0EB4212014B1A700120ECE7BC
:1034D0002400002023000020DC00002021B182898C
:1034E00042F40052828104E082894DF6FF731A4053
:1034F0008281704770B50246002400230025002019
:1035000040F66A16B14200D100BFC1F3421501F086
:103510001F03012606FA03F3012D02D196893340D9
:1035200006E0022D02D1168A334001E0968A33402C
:103530000C12012606FA04F41688344013B10CB1BB
:10354000012000E0002070BDF0B5034600240026F5
:103550000025002040F66A17B94200D100BF184686
:10356000C1F3421401F01F06012707FA06F5012CEA
:1035700001D10C3004E0022C01D1103000E01430F5
:103580001AB107682F43076002E00768AF4307607E
:10359000F0BD00002DE9FF4705460E460024A14678
:1035A00000BFA046B08900B100BF2C8A24F440546B
:1035B000F08804432C82AC8941F20C608443B088CB
:1035C00031890843718908430443AC81AC8A24F4EF
:1035D0004074B0890443AC826846FFF7F5F920488F
:1035E000854202D01F48854202D1DDF80C9001E0EF
:1035F000DDF80890A88900F4004040B109EBC9004B
:1036000000EB091031684900B0FBF1F707E009EB66
:10361000C90000EB091031688900B0FBF1F76420A4
:10362000B7FBF0F004012009642101FB1078A889A0
:1036300000F4004040B1322000EBC800B0FBF1F0D4
:1036400000F00700044308E0322000EB081064217A
:10365000B0FBF1F000F00F0004432C81BDE8FF87C0
:10366000001001400014014001468888C0F30800A2
:103670007047C1F308028280704700BFFEE7000078
:1036800000B587B001210220FFF76EF9012110205B
:10369000FFF78AF9072206212448FEF7B6FC072225
:1036A00011462248FEF7B1FC02208DF818000020D8
:1036B0008DF81A00C020059001208DF81B00022013
:1036C0008DF8190005A91948FEF757FC4FF4E130B1
:1036D00001900020ADF810000C20ADF80E00002085
:1036E000ADF80C00ADF80A00ADF8080001A91048CB
:1036F000FFF750FF25208DF8000001208DF8030012
:1037000002208DF8010000208DF802006846FEF7C7
:1037100093FF012240F225510548FFF715FF0121D3
:103720000348FFF7DBFE07B000BD000000040240C5
:103730000010014003B401984100009850EAC120F4
:1037400018BF04204A0D18BF40F0010040F2FF727C
:10375000B2EB515F08BF40F00200012808BF05200E
:1037600002B0704730380A2801D20120704700208B
:10377000704700001CB5FEF719FDFEF7F3FCFEF7DD
:10378000C7FAFEF763FEFFF7C9FDFFF779FFFEF703
:103790000FFE054631E0FEF733FD07463846FFF7DA
:1037A00050F803E09DF80400FFF766F801A8FFF762
:1037B00073FE0028F6D1FEF757FEFEF7F9FD04462A
:1037C000FEF74CFEC0B1601B4CF25031884213D35F
:1037D0002546FEF7CFFD0646FEF7D2FD8046FEF7F2
:1037E000D5FD8146FEF7D8FD824643464A465146FE
:1037F00002A00096FFF7C8FD00BFCCE7256C642C43
:10380000256C752C256C752C25750D0A00000000A3
:1038100010B500290AD00878002807D00548784458
:10382000FDF7AAFD002801D0002010BD0248784411
:1038300010BD00007A0100007201000010B50029DF
:103840000AD00878002807D005487844FDF794FD91
:10385000002801D0002010BD0248784410BD0000AF
:103860006A010000620100004FF04070E1EE100AB2
:103870007047FDF78EB9FDF7C3BA000000000000E5
:1038800000000000303132333435363738394142A8
:1038900043444546403058003031323334353637B2
:1038A000383961626364656640307800040000085E
:1038B0000000000000000002000100001030313262
:1038C0003334353637383961626364656678700041
:1038D0003031323334353637383941424344454646
:1038E0005850000002400000000000A0000000004E
:1038F00005400000000000C8000000000C4000006F
:103900000000409C00000000194000000020BCBEE8
:103910000000000034400000BFC91B8E00000004FE
:10392000B5400000504BCFD06607E2CF0100000049
:103930006C4100003E8251AADFEEA7340100000076
:10394000D9420000DCB5A0E23A301F97FFFFFFFF2D
:10395000B4450000FD25A0C8E9A3C14FFFFFFFFF4C
:10396000FF3F00000000008000000000FF3F00005B
:103970000000008000000000C43A000800000020A1
:103980005C000000C4010008203B00085C0000202F
:103990004C070000E00100081C000000430000008C
:1039A000F8FFFFFF0C0000000E0000000F000000F9
:1039B0002E0000001001000043000000F8FFFFFF90
:1039C0000040404040404040404041414141414032
:1039D00040404040404040404040404040404040E7
:1039E0004005020202020202020202020202020276
:1039F000022020202020202020202002020202027B
:103A000002029090909090901010101010101010D2
:103A100010101010101010101010101002020202DE
:103A20000202888888888888080808080808080822
:103A3000080808080808080808080808020202021E
:103A40004000000000000000000000000000000036
:103A50000000000000000000000000000000000066
:103A60000000000000000000000000000000000056
:103A70000000000000000000000000000000000046
:103A80000000000000000000000000000000000036
:103A90000000000000000000000000000000000026
:103AA0000000000000000000000000000000000016
:103AB0000000000000000000000000000000000006
:103AC00000000000000000000000000000000102F3
:103AD00003040102030406070809000000000000B7
:103AE00000010000000000000000000000000100D4
:103AF00005000000000000000000000000000000C1
:103B000000000000000000000000000000000000B5
:103B100000000000000000000000000000000000A5
:040000050800018965
:00000001FF
